{
  "contractName": "TestContract",
  "abi": [
    {
      "inputs": [
        {
          "internalType": "uint256",
          "name": "x",
          "type": "uint256"
        }
      ],
      "name": "double",
      "outputs": [
        {
          "internalType": "uint256",
          "name": "",
          "type": "uint256"
        }
      ],
      "stateMutability": "pure",
      "type": "function",
      "constant": true
    }
  ],
  "bytecode": "0x608060405234801561001057600080fd5b5060c68061001f6000396000f3fe6080604052348015600f57600080fd5b506004361060285760003560e01c8063eee9720614602d575b600080fd5b605660048036036020811015604157600080fd5b8101908080359060200190929190505050606c565b6040518082815260200191505060405180910390f35b600081600060028281607a57fe5b0614608457600080fd5b6002830291505091905056fea2646970667358221220a60879b8754afed236e335e4ff746d291f60e8260d6dd1be70ddef1dab83087e64736f6c63430007000033",
  "immutableReferences": {},
  "source": "pragma solidity ^0.7.0;\n\ncontract TestContract {\n    uint stateVariable; // <- status variable\n\n    // This is a function\n    function double(uint256 x) public pure checkOdd(x) returns (uint256) {\n        return x * 2;\n    }\n  \n    // Modifier -> functions that are executed before other functions. Replaces the if\n    modifier checkOdd(uint256 x) {\n        // require -> if the validation is not true, the execution of the function stops\n        require(x % 2 == 0);\n        // _ where the main function is going to be execute\n        _;\n    }\n  \n  \n}\n\n",
  "sourcePath": "/Users/matiaspenas/webDevelopment/dapps/Test/contracts/TestContract.sol",
  "compiler": {
    "name": "solc",
    "version": "0.7.0+commit.9e61f92b.Emscripten.clang"
  },
  "schemaVersion": "3.4.3",
  "updatedAt": "2021-10-21T18:45:02.806Z",
  "networkType": "ethereum",
  "devdoc": {
    "kind": "dev",
    "methods": {},
    "version": 1
  },
  "userdoc": {
    "kind": "user",
    "methods": {},
    "version": 1
  }
}